{
  "contractName": "MetaSnap",
  "abi": [
    {
      "inputs": [],
      "payable": false,
      "stateMutability": "nonpayable",
      "type": "constructor"
    },
    {
      "constant": true,
      "inputs": [
        {
          "internalType": "string",
          "name": "",
          "type": "string"
        },
        {
          "internalType": "uint256",
          "name": "",
          "type": "uint256"
        }
      ],
      "name": "snapshots",
      "outputs": [
        {
          "internalType": "uint256",
          "name": "date",
          "type": "uint256"
        },
        {
          "internalType": "string",
          "name": "url",
          "type": "string"
        }
      ],
      "payable": false,
      "stateMutability": "view",
      "type": "function"
    },
    {
      "constant": true,
      "inputs": [
        {
          "internalType": "string",
          "name": "_url",
          "type": "string"
        }
      ],
      "name": "getSnapsForUrl",
      "outputs": [
        {
          "components": [
            {
              "internalType": "uint256",
              "name": "date",
              "type": "uint256"
            },
            {
              "internalType": "string",
              "name": "url",
              "type": "string"
            }
          ],
          "internalType": "struct MetaSnap.Snapshot[]",
          "name": "",
          "type": "tuple[]"
        }
      ],
      "payable": false,
      "stateMutability": "view",
      "type": "function"
    },
    {
      "constant": false,
      "inputs": [
        {
          "internalType": "string",
          "name": "_url",
          "type": "string"
        },
        {
          "internalType": "uint256",
          "name": "_date",
          "type": "uint256"
        },
        {
          "internalType": "string",
          "name": "_snapshotUrl",
          "type": "string"
        }
      ],
      "name": "addSnapshot",
      "outputs": [],
      "payable": false,
      "stateMutability": "nonpayable",
      "type": "function"
    }
  ],
  "bytecode": "0x608060405234801561001057600080fd5b50610983806100206000396000f3fe608060405234801561001057600080fd5b50600436106100415760003560e01c8063079540371461004657806339cfa27e1461006257806351e8dbe414610093575b600080fd5b610060600480360361005b9190810190610508565b6100c3565b005b61007c60048036036100779190810190610587565b610150565b60405161008a92919061079b565b60405180910390f35b6100ad60048036036100a891908101906104c7565b61023c565b6040516100ba9190610779565b60405180910390f35b6000836040516100d39190610762565b908152602001604051809103902060405180604001604052808481526020018381525090806001815401808255809150509060018203906000526020600020906002020160009091929091909150600082015181600001556020820151816001019080519060200190610147929190610365565b50505050505050565b600082805160208101820180518482526020830160208501208183528095505050505050818154811061017f57fe5b906000526020600020906002020160009150915050806000015490806001018054600181600116156101000203166002900480601f0160208091040260200160405190810160405280929190818152602001828054600181600116156101000203166002900480156102325780601f1061020757610100808354040283529160200191610232565b820191906000526020600020905b81548152906001019060200180831161021557829003601f168201915b5050505050905082565b606060008260405161024e9190610762565b9081526020016040518091039020805480602002602001604051908101604052809291908181526020016000905b8282101561035a578382906000526020600020906002020160405180604001604052908160008201548152602001600182018054600181600116156101000203166002900480601f0160208091040260200160405190810160405280929190818152602001828054600181600116156101000203166002900480156103425780601f1061031757610100808354040283529160200191610342565b820191906000526020600020905b81548152906001019060200180831161032557829003601f168201915b5050505050815250508152602001906001019061027c565b505050509050919050565b828054600181600116156101000203166002900490600052602060002090601f016020900481019282601f106103a657805160ff19168380011785556103d4565b828001600101855582156103d4579182015b828111156103d35782518255916020019190600101906103b8565b5b5090506103e191906103e5565b5090565b61040791905b808211156104035760008160009055506001016103eb565b5090565b90565b600082601f83011261041b57600080fd5b813561042e610429826107f8565b6107cb565b9150808252602083016020830185838301111561044a57600080fd5b6104558382846108d6565b50505092915050565b600082601f83011261046f57600080fd5b813561048261047d82610824565b6107cb565b9150808252602083016020830185838301111561049e57600080fd5b6104a98382846108d6565b50505092915050565b6000813590506104c181610929565b92915050565b6000602082840312156104d957600080fd5b600082013567ffffffffffffffff8111156104f357600080fd5b6104ff8482850161045e565b91505092915050565b60008060006060848603121561051d57600080fd5b600084013567ffffffffffffffff81111561053757600080fd5b6105438682870161045e565b9350506020610554868287016104b2565b925050604084013567ffffffffffffffff81111561057157600080fd5b61057d8682870161045e565b9150509250925092565b6000806040838503121561059a57600080fd5b600083013567ffffffffffffffff8111156105b457600080fd5b6105c08582860161040a565b92505060206105d1858286016104b2565b9150509250929050565b60006105e78383610707565b905092915050565b60006105fa82610860565b610604818561088e565b93508360208202850161061685610850565b8060005b85811015610652578484038952815161063385826105db565b945061063e83610881565b925060208a0199505060018101905061061a565b50829750879550505050505092915050565b600061066f82610876565b61067981856108c1565b93506106898185602086016108e5565b80840191505092915050565b60006106a08261086b565b6106aa818561089f565b93506106ba8185602086016108e5565b6106c381610918565b840191505092915050565b60006106d98261086b565b6106e381856108b0565b93506106f38185602086016108e5565b6106fc81610918565b840191505092915050565b600060408301600083015161071f6000860182610744565b50602083015184820360208601526107378282610695565b9150508091505092915050565b61074d816108cc565b82525050565b61075c816108cc565b82525050565b600061076e8284610664565b915081905092915050565b6000602082019050818103600083015261079381846105ef565b905092915050565b60006040820190506107b06000830185610753565b81810360208301526107c281846106ce565b90509392505050565b6000604051905081810181811067ffffffffffffffff821117156107ee57600080fd5b8060405250919050565b600067ffffffffffffffff82111561080f57600080fd5b601f19601f8301169050602081019050919050565b600067ffffffffffffffff82111561083b57600080fd5b601f19601f8301169050602081019050919050565b6000819050602082019050919050565b600081519050919050565b600081519050919050565b600081519050919050565b6000602082019050919050565b600082825260208201905092915050565b600082825260208201905092915050565b600082825260208201905092915050565b600081905092915050565b6000819050919050565b82818337600083830152505050565b60005b838110156109035780820151818401526020810190506108e8565b83811115610912576000848401525b50505050565b6000601f19601f8301169050919050565b610932816108cc565b811461093d57600080fd5b5056fea365627a7a723158202cc21a146b865e9730572db80d53f2e94411b655c336d101fa6a0f4fba2c1cc56c6578706572696d656e74616cf564736f6c63430005100040",
  "source": "// SPDX-License-Identifier: MIT\npragma solidity >=0.4.21 <8.10.0;\npragma experimental ABIEncoderV2;\n\ncontract MetaSnap {\n\n    struct Snapshot {\n        uint256 date;\n        string url;\n    }\n\n    mapping(string => Snapshot[]) public snapshots;\n\n    //function set(uint x) public {\n    //    addSnapshot('https://weburl', 20201444, 'https://snapshoturl3');\n    //}\n\n    function getSnapsForUrl(string memory _url) public view returns (Snapshot[] memory) {\n        return snapshots[_url];\n        /*Snapshot[] storage memorySnapshots = snapshots[_url];\n        Snapshot[] memory urlSnapshots = new Snapshot[](memorySnapshots.length);\n        for (uint i = 0; i < memorySnapshots.length; i++) {\n            Snapshot memory snap = memorySnapshots[i];\n            urlSnapshots[i] = snap;\n        }\n        return urlSnapshots;*/\n    }\n\n    constructor() public {\n        //addSnapshot('https://weburl', 20221288, 'https://snapshoturl1');\n        //addSnapshot('https://weburl', 20211366, 'https://snapshoturl2');\n    }\n\n    function addSnapshot(string memory _url, uint256 _date, string memory _snapshotUrl) public {\n        // TODO: let smart contract fetch _url content and set snapshotUrl\n        snapshots[_url].push(Snapshot(_date, _snapshotUrl));\n    }\n\n}\n",
  "sourcePath": "/Users/korbinianabstreiter/crytoprojects/snap/metasnap/smartapp/contracts/MetaSnap.sol",
  "compiler": {
    "name": "solc",
    "version": "0.5.16+commit.9c3226ce.Emscripten.clang"
  },
  "schemaVersion": "3.4.5",
  "updatedAt": "2022-03-09T17:46:21.736Z",
  "networkType": "ethereum",
  "devdoc": {
    "methods": {}
  },
  "userdoc": {
    "methods": {}
  }
}