{
  "contractName": "MetaSnap",
  "abi": [
    {
      "inputs": [],
      "stateMutability": "nonpayable",
      "type": "constructor"
    },
    {
      "anonymous": false,
      "inputs": [
        {
          "indexed": true,
          "internalType": "bytes32",
          "name": "id",
          "type": "bytes32"
        }
      ],
      "name": "ChainlinkCancelled",
      "type": "event"
    },
    {
      "anonymous": false,
      "inputs": [
        {
          "indexed": true,
          "internalType": "bytes32",
          "name": "id",
          "type": "bytes32"
        }
      ],
      "name": "ChainlinkFulfilled",
      "type": "event"
    },
    {
      "anonymous": false,
      "inputs": [
        {
          "indexed": true,
          "internalType": "bytes32",
          "name": "id",
          "type": "bytes32"
        }
      ],
      "name": "ChainlinkRequested",
      "type": "event"
    },
    {
      "inputs": [
        {
          "internalType": "string",
          "name": "",
          "type": "string"
        },
        {
          "internalType": "uint256",
          "name": "",
          "type": "uint256"
        }
      ],
      "name": "snapshots",
      "outputs": [
        {
          "internalType": "uint256",
          "name": "date",
          "type": "uint256"
        },
        {
          "internalType": "string",
          "name": "url",
          "type": "string"
        }
      ],
      "stateMutability": "view",
      "type": "function",
      "constant": true
    },
    {
      "inputs": [
        {
          "internalType": "string",
          "name": "_url",
          "type": "string"
        }
      ],
      "name": "getSnapsForUrl",
      "outputs": [
        {
          "components": [
            {
              "internalType": "uint256",
              "name": "date",
              "type": "uint256"
            },
            {
              "internalType": "string",
              "name": "url",
              "type": "string"
            }
          ],
          "internalType": "struct MetaSnap.Snapshot[]",
          "name": "",
          "type": "tuple[]"
        }
      ],
      "stateMutability": "view",
      "type": "function",
      "constant": true
    },
    {
      "inputs": [
        {
          "internalType": "string",
          "name": "_url",
          "type": "string"
        }
      ],
      "name": "requestMetaSnapFromOracle",
      "outputs": [
        {
          "internalType": "bytes32",
          "name": "requestId",
          "type": "bytes32"
        }
      ],
      "stateMutability": "nonpayable",
      "type": "function"
    },
    {
      "inputs": [
        {
          "internalType": "bytes32",
          "name": "_requestId",
          "type": "bytes32"
        },
        {
          "internalType": "bytes32",
          "name": "_content",
          "type": "bytes32"
        }
      ],
      "name": "fulfill",
      "outputs": [],
      "stateMutability": "nonpayable",
      "type": "function"
    },
    {
      "inputs": [
        {
          "internalType": "string",
          "name": "_url",
          "type": "string"
        },
        {
          "internalType": "uint256",
          "name": "_date",
          "type": "uint256"
        },
        {
          "internalType": "string",
          "name": "_snapshotUrl",
          "type": "string"
        }
      ],
      "name": "addSnapshot",
      "outputs": [],
      "stateMutability": "nonpayable",
      "type": "function"
    }
  ],
  "bytecode": "0x6080604052600160045534801561001557600080fd5b50737afe1118ea78c1eae84ca8fee5c65bc76ccf879e600660006101000a81548173ffffffffffffffffffffffffffffffffffffffff021916908373ffffffffffffffffffffffffffffffffffffffff1602179055507f623062646533303832383238343364343961336138643264643234363461663160078190555067016345785d8a0000600881905550611759806100b06000396000f3fe608060405234801561001057600080fd5b50600436106100575760003560e01c8063042f2b651461005c578063079540371461007857806339cfa27e1461009457806351e8dbe4146100c55780638ed8a304146100f5575b600080fd5b61007660048036038101906100719190610ede565b610125565b005b610092600480360381019061008d9190610faf565b61022f565b005b6100ae60048036038101906100a99190610f5b565b6102b9565b6040516100bc929190611498565b60405180910390f35b6100df60048036038101906100da9190610f1a565b6103a5565b6040516100ec919061141b565b60405180910390f35b61010f600480360381019061010a9190610f1a565b6104ce565b60405161011c919061143d565b60405180910390f35b816005600082815260200190815260200160002060009054906101000a900473ffffffffffffffffffffffffffffffffffffffff1673ffffffffffffffffffffffffffffffffffffffff163373ffffffffffffffffffffffffffffffffffffffff16146101c7576040517f08c379a00000000000000000000000000000000000000000000000000000000081526004016101be90611478565b60405180910390fd5b6005600082815260200190815260200160002060006101000a81549073ffffffffffffffffffffffffffffffffffffffff0219169055807f7cc135e0cebb02c3480ae5d74d377283180a2601f8f644edf7987b009316c63a60405160405180910390a2505050565b60098360405161023f9190611341565b908152602001604051809103902060405180604001604052808481526020018381525090806001815401808255809150506001900390600052602060002090600202016000909190919091506000820151816000015560208201518160010190805190602001906102b1929190610cfe565b505050505050565b60098280516020810182018051848252602083016020850120818352809550505050505081815481106102e857fe5b906000526020600020906002020160009150915050806000015490806001018054600181600116156101000203166002900480601f01602080910402602001604051908101604052809291908181526020018280546001816001161561010002031660029004801561039b5780601f106103705761010080835404028352916020019161039b565b820191906000526020600020905b81548152906001019060200180831161037e57829003601f168201915b5050505050905082565b60606009826040516103b79190611341565b9081526020016040518091039020805480602002602001604051908101604052809291908181526020016000905b828210156104c3578382906000526020600020906002020160405180604001604052908160008201548152602001600182018054600181600116156101000203166002900480601f0160208091040260200160405190810160405280929190818152602001828054600181600116156101000203166002900480156104ab5780601f10610480576101008083540402835291602001916104ab565b820191906000526020600020905b81548152906001019060200180831161048e57829003601f168201915b505050505081525050815260200190600101906103e5565b505050509050919050565b60006104d8610d7e565b6104ec6007543063042f2b6560e01b61056f565b90506105386040518060400160405280600381526020017f676574000000000000000000000000000000000000000000000000000000000081525084836105a09092919063ffffffff16565b610567600660009054906101000a900473ffffffffffffffffffffffffffffffffffffffff16826008546105d3565b915050919050565b610577610d7e565b61057f610d7e565b6105968585858461079d909392919063ffffffff16565b9150509392505050565b6105b782846080015161084d90919063ffffffff16565b6105ce81846080015161084d90919063ffffffff16565b505050565b6000306004546040516020016105ea929190611315565b604051602081830303815290604052805190602001209050600454836060018181525050836005600083815260200190815260200160002060006101000a81548173ffffffffffffffffffffffffffffffffffffffff021916908373ffffffffffffffffffffffffffffffffffffffff160217905550807fb5e6e01e79f91267dc17b4e6314d5d4d03593d2ceee0fbb452b750bd70ea5af960405160405180910390a2600260009054906101000a900473ffffffffffffffffffffffffffffffffffffffff1673ffffffffffffffffffffffffffffffffffffffff16634000aea085846106d687610872565b6040518463ffffffff1660e01b81526004016106f4939291906113dd565b602060405180830381600087803b15801561070e57600080fd5b505af1158015610722573d6000803e3d6000fd5b505050506040513d601f19601f820116820180604052508101906107469190610eb5565b610785576040517f08c379a000000000000000000000000000000000000000000000000000000000815260040161077c90611458565b60405180910390fd5b60016004600082825401925050819055509392505050565b6107a5610d7e565b6107b58560800151610100610919565b508385600001818152505082856020019073ffffffffffffffffffffffffffffffffffffffff16908173ffffffffffffffffffffffffffffffffffffffff16815250508185604001907bffffffffffffffffffffffffffffffffffffffffffffffffffffffff191690817bffffffffffffffffffffffffffffffffffffffffffffffffffffffff191681525050849050949350505050565b61085a826003835161096d565b61086d8183610af290919063ffffffff16565b505050565b6060634042994660e01b600080846000015185602001518660400151876060015160018960800151600001516040516024016108b5989796959493929190611358565b604051602081830303815290604052907bffffffffffffffffffffffffffffffffffffffffffffffffffffffff19166020820180517bffffffffffffffffffffffffffffffffffffffffffffffffffffffff83818316178352505050509050919050565b610921610deb565b60006020838161092d57fe5b0614610946576020828161093d57fe5b06602003820191505b81836020018181525050604051808452600081528281016020016040525082905092915050565b60178167ffffffffffffffff16116109a45761099e8160058460ff16901b60ff161784610b1490919063ffffffff16565b50610aed565b60ff8167ffffffffffffffff16116109fa576109d3601860058460ff16901b1784610b1490919063ffffffff16565b506109f48167ffffffffffffffff16600185610b349092919063ffffffff16565b50610aec565b61ffff8167ffffffffffffffff1611610a5157610a2a601960058460ff16901b1784610b1490919063ffffffff16565b50610a4b8167ffffffffffffffff16600285610b349092919063ffffffff16565b50610aeb565b63ffffffff8167ffffffffffffffff1611610aaa57610a83601a60058460ff16901b1784610b1490919063ffffffff16565b50610aa48167ffffffffffffffff16600485610b349092919063ffffffff16565b50610aea565b610ac7601b60058460ff16901b1784610b1490919063ffffffff16565b50610ae88167ffffffffffffffff16600885610b349092919063ffffffff16565b505b5b5b5b505050565b610afa610deb565b610b0c83846000015151848551610b56565b905092915050565b610b1c610deb565b610b2c8384600001515184610c0f565b905092915050565b610b3c610deb565b610b4d848560000151518585610c5d565b90509392505050565b610b5e610deb565b8251821115610b6c57600080fd5b84602001518285011115610b9757610b96856002610b908860200151888701610cbe565b02610cda565b5b600080865180518760208301019350808887011115610bb65787860182525b60208701925050505b60208410610be25780518252602082019150602081019050602084039350610bbf565b60006001856020036101000a03905080198251168184511681811785525050879350505050949350505050565b610c17610deb565b83602001518310610c3457610c33846002866020015102610cda565b5b8351805160208583010184815381861415610c50576001820183525b5050508390509392505050565b610c65610deb565b84602001518483011115610c8357610c8285600286850102610cda565b5b60006001836101000a0390508551838682010185831982511617815281518588011115610cb05784870182525b505085915050949350505050565b600081831115610cd057829050610cd4565b8190505b92915050565b606082600001519050610ced8383610919565b50610cf88382610af2565b50505050565b828054600181600116156101000203166002900490600052602060002090601f016020900481019282601f10610d3f57805160ff1916838001178555610d6d565b82800160010185558215610d6d579182015b82811115610d6c578251825591602001919060010190610d51565b5b509050610d7a9190610e05565b5090565b6040518060a0016040528060008019168152602001600073ffffffffffffffffffffffffffffffffffffffff16815260200160007bffffffffffffffffffffffffffffffffffffffffffffffffffffffff1916815260200160008152602001610de5610deb565b81525090565b604051806040016040528060608152602001600081525090565b5b80821115610e1e576000816000905550600101610e06565b5090565b600081519050610e31816116de565b92915050565b600081359050610e46816116f5565b92915050565b600082601f830112610e5d57600080fd5b8135610e70610e6b826114f5565b6114c8565b91508082526020830160208301858383011115610e8c57600080fd5b610e97838284611650565b50505092915050565b600081359050610eaf8161170c565b92915050565b600060208284031215610ec757600080fd5b6000610ed584828501610e22565b91505092915050565b60008060408385031215610ef157600080fd5b6000610eff85828601610e37565b9250506020610f1085828601610e37565b9150509250929050565b600060208284031215610f2c57600080fd5b600082013567ffffffffffffffff811115610f4657600080fd5b610f5284828501610e4c565b91505092915050565b60008060408385031215610f6e57600080fd5b600083013567ffffffffffffffff811115610f8857600080fd5b610f9485828601610e4c565b9250506020610fa585828601610ea0565b9150509250929050565b600080600060608486031215610fc457600080fd5b600084013567ffffffffffffffff811115610fde57600080fd5b610fea86828701610e4c565b9350506020610ffb86828701610ea0565b925050604084013567ffffffffffffffff81111561101857600080fd5b61102486828701610e4c565b9150509250925092565b600061103a83836112a3565b905092915050565b61104b816115ae565b82525050565b600061105c82611531565b611066818561155f565b93508360208202850161107885611521565b8060005b858110156110b45784840389528151611095858261102e565b94506110a083611552565b925060208a0199505060018101905061107c565b50829750879550505050505092915050565b6110cf816115cc565b82525050565b6110de816115d6565b82525050565b60006110ef8261153c565b6110f98185611570565b935061110981856020860161165f565b611112816116c0565b840191505092915050565b61112e6111298261162c565b611692565b82525050565b600061113f82611547565b6111498185611581565b935061115981856020860161165f565b611162816116c0565b840191505092915050565b600061117882611547565b6111828185611592565b935061119281856020860161165f565b61119b816116c0565b840191505092915050565b60006111b182611547565b6111bb81856115a3565b93506111cb81856020860161165f565b80840191505092915050565b60006111e4602383611592565b91507f756e61626c6520746f207472616e73666572416e6443616c6c20746f206f726160008301527f636c6500000000000000000000000000000000000000000000000000000000006020830152604082019050919050565b600061124a602883611592565b91507f536f75726365206d75737420626520746865206f7261636c65206f662074686560008301527f20726571756573740000000000000000000000000000000000000000000000006020830152604082019050919050565b60006040830160008301516112bb60008601826112e0565b50602083015184820360208601526112d38282611134565b9150508091505092915050565b6112e981611622565b82525050565b6112f881611622565b82525050565b61130f61130a82611622565b6116b6565b82525050565b6000611321828561111d565b60148201915061133182846112fe565b6020820191508190509392505050565b600061134d82846111a6565b915081905092915050565b60006101008201905061136e600083018b611042565b61137b602083018a6112ef565b61138860408301896110c6565b6113956060830188611042565b6113a260808301876110d5565b6113af60a08301866112ef565b6113bc60c08301856112ef565b81810360e08301526113ce81846110e4565b90509998505050505050505050565b60006060820190506113f26000830186611042565b6113ff60208301856112ef565b818103604083015261141181846110e4565b9050949350505050565b600060208201905081810360008301526114358184611051565b905092915050565b600060208201905061145260008301846110c6565b92915050565b60006020820190508181036000830152611471816111d7565b9050919050565b600060208201905081810360008301526114918161123d565b9050919050565b60006040820190506114ad60008301856112ef565b81810360208301526114bf818461116d565b90509392505050565b6000604051905081810181811067ffffffffffffffff821117156114eb57600080fd5b8060405250919050565b600067ffffffffffffffff82111561150c57600080fd5b601f19601f8301169050602081019050919050565b6000819050602082019050919050565b600081519050919050565b600081519050919050565b600081519050919050565b6000602082019050919050565b600082825260208201905092915050565b600082825260208201905092915050565b600082825260208201905092915050565b600082825260208201905092915050565b600081905092915050565b60006115b982611602565b9050919050565b60008115159050919050565b6000819050919050565b60007fffffffff0000000000000000000000000000000000000000000000000000000082169050919050565b600073ffffffffffffffffffffffffffffffffffffffff82169050919050565b6000819050919050565b60006116378261163e565b9050919050565b600061164982611602565b9050919050565b82818337600083830152505050565b60005b8381101561167d578082015181840152602081019050611662565b8381111561168c576000848401525b50505050565b600061169d826116a4565b9050919050565b60006116af826116d1565b9050919050565b6000819050919050565b6000601f19601f8301169050919050565b60008160601b9050919050565b6116e7816115c0565b81146116f257600080fd5b50565b6116fe816115cc565b811461170957600080fd5b50565b61171581611622565b811461172057600080fd5b5056fea264697066735822122015c0be3a86a9a515e6e6a74f28b79fca66cb3f0ae5951c827fb5f2c7b93eb8fa64736f6c634300060c0033",
  "immutableReferences": {},
  "source": "// SPDX-License-Identifier: MIT\npragma solidity >=0.6.0 <8.10.0;\npragma experimental ABIEncoderV2;\nimport \"@chainlink/contracts/src/v0.6/ChainlinkClient.sol\";\n\ncontract MetaSnap is ChainlinkClient {\n\n    address private oracle;\n    bytes32 private jobId;\n    uint256 private fee;\n\n    struct Snapshot {\n        uint256 date;\n        string url;\n    }\n\n    mapping(string => Snapshot[]) public snapshots;\n\n    //function set(uint x) public {\n    //    addSnapshot('https://weburl', 20201444, 'https://snapshoturl3');\n    //}\n\n    function getSnapsForUrl(string memory _url) public view returns (Snapshot[] memory) {\n        return snapshots[_url];\n        /*Snapshot[] storage memorySnapshots = snapshots[_url];\n        Snapshot[] memory urlSnapshots = new Snapshot[](memorySnapshots.length);\n        for (uint i = 0; i < memorySnapshots.length; i++) {\n            Snapshot memory snap = memorySnapshots[i];\n            urlSnapshots[i] = snap;\n        }\n        return urlSnapshots;*/\n    }\n\n    constructor() public {\n        //setPublicChainlinkToken();\n        // TODO these should not be fixed but changable by the owner\n        oracle = 0x7AFe1118Ea78C1eae84ca8feE5C65Bc76CcF879e; // for rinkeby testnet, see https://docs.chain.link/docs/decentralized-oracles-ethereum-mainnet/\n        jobId = \"b0bde308282843d49a3a8d2dd2464af1\";\n        fee = 0.1 * 10 ** 18;\n    }\n\n    function requestMetaSnapFromOracle(string memory _url) public returns (bytes32 requestId) \n    {\n        Chainlink.Request memory request = buildChainlinkRequest(jobId, address(this), this.fulfill.selector);\n        \n        // Set the URL to perform the GET request on\n        request.add(\"get\", _url);\n\n        // Sends the request\n        return sendChainlinkRequestTo(oracle, request, fee);\n    }\n\n    /**\n     * Receive the response in the form of bytes32\n     */ \n    function fulfill(bytes32 _requestId, bytes32 _content) public recordChainlinkFulfillment(_requestId)\n    {\n        // TODO: upload _content to ipfs\n    }\n\n    function addSnapshot(string memory _url, uint256 _date, string memory _snapshotUrl) public {\n        // TODO: let smart contract fetch _url content and set snapshotUrl\n        snapshots[_url].push(Snapshot(_date, _snapshotUrl));\n    }\n\n}\n",
  "sourcePath": "/Users/korbinianabstreiter/crytoprojects/snap/metasnap/smartapp/contracts/MetaSnap.sol",
  "compiler": {
    "name": "solc",
    "version": "0.6.12+commit.27d51765.Emscripten.clang"
  },
  "schemaVersion": "3.4.5",
  "updatedAt": "2022-03-12T10:10:29.996Z",
  "networkType": "ethereum",
  "devdoc": {
    "kind": "dev",
    "methods": {},
    "version": 1
  },
  "userdoc": {
    "kind": "user",
    "methods": {
      "fulfill(bytes32,bytes32)": {
        "notice": "Receive the response in the form of bytes32"
      }
    },
    "version": 1
  }
}