{
  "contractName": "MetaSnap",
  "abi": [
    {
      "inputs": [],
      "payable": false,
      "stateMutability": "nonpayable",
      "type": "constructor"
    },
    {
      "constant": true,
      "inputs": [
        {
          "internalType": "string",
          "name": "",
          "type": "string"
        },
        {
          "internalType": "uint256",
          "name": "",
          "type": "uint256"
        }
      ],
      "name": "snapshots",
      "outputs": [
        {
          "internalType": "uint256",
          "name": "date",
          "type": "uint256"
        },
        {
          "internalType": "string",
          "name": "url",
          "type": "string"
        }
      ],
      "payable": false,
      "stateMutability": "view",
      "type": "function"
    },
    {
      "constant": true,
      "inputs": [
        {
          "internalType": "string",
          "name": "_url",
          "type": "string"
        }
      ],
      "name": "getSnapsForUrl",
      "outputs": [
        {
          "components": [
            {
              "internalType": "uint256",
              "name": "date",
              "type": "uint256"
            },
            {
              "internalType": "string",
              "name": "url",
              "type": "string"
            }
          ],
          "internalType": "struct MetaSnap.Snapshot[]",
          "name": "",
          "type": "tuple[]"
        }
      ],
      "payable": false,
      "stateMutability": "view",
      "type": "function"
    },
    {
      "constant": false,
      "inputs": [
        {
          "internalType": "string",
          "name": "_url",
          "type": "string"
        },
        {
          "internalType": "uint256",
          "name": "_date",
          "type": "uint256"
        },
        {
          "internalType": "string",
          "name": "_snapshotUrl",
          "type": "string"
        }
      ],
      "name": "addSnapshot",
      "outputs": [],
      "payable": false,
      "stateMutability": "nonpayable",
      "type": "function"
    }
  ],
  "bytecode": "0x608060405234801561001057600080fd5b50610af3806100206000396000f3fe608060405234801561001057600080fd5b50600436106100415760003560e01c8063079540371461004657806339cfa27e1461006257806351e8dbe414610093575b600080fd5b610060600480360361005b9190810190610678565b6100c3565b005b61007c600480360361007791908101906106f7565b610150565b60405161008a92919061090b565b60405180910390f35b6100ad60048036036100a89190810190610637565b61023c565b6040516100ba91906108e9565b60405180910390f35b6000836040516100d391906108d2565b9081526020016040518091039020604051806040016040528084815260200183815250908060018154018082558091505090600182039060005260206000209060020201600090919290919091506000820151816000015560208201518160010190805190602001906101479291906104a1565b50505050505050565b600082805160208101820180518482526020830160208501208183528095505050505050818154811061017f57fe5b906000526020600020906002020160009150915050806000015490806001018054600181600116156101000203166002900480601f0160208091040260200160405190810160405280929190818152602001828054600181600116156101000203166002900480156102325780601f1061020757610100808354040283529160200191610232565b820191906000526020600020905b81548152906001019060200180831161021557829003601f168201915b5050505050905082565b606060008260405161024e91906108d2565b9081526020016040518091039020805480602002602001604051908101604052809291908181526020016000905b8282101561035a578382906000526020600020906002020160405180604001604052908160008201548152602001600182018054600181600116156101000203166002900480601f0160208091040260200160405190810160405280929190818152602001828054600181600116156101000203166002900480156103425780601f1061031757610100808354040283529160200191610342565b820191906000526020600020905b81548152906001019060200180831161032557829003601f168201915b5050505050815250508152602001906001019061027c565b50505050905061049c565b61036d610521565b81526020019060019003908161036557905050905060008090505b82805490508110156104955761039c61053b565b8382815481106103a857fe5b906000526020600020906002020160405180604001604052908160008201548152602001600182018054600181600116156101000203166002900480601f0160208091040260200160405190810160405280929190818152602001828054600181600116156101000203166002900480156104645780601f1061043957610100808354040283529160200191610464565b820191906000526020600020905b81548152906001019060200180831161044757829003601f168201915b50505050508152505090508083838151811061047c57fe5b6020026020010181905250508080600101915050610388565b5080925050505b919050565b828054600181600116156101000203166002900490600052602060002090601f016020900481019282601f106104e257805160ff1916838001178555610510565b82800160010185558215610510579182015b8281111561050f5782518255916020019190600101906104f4565b5b50905061051d9190610555565b5090565b604051806040016040528060008152602001606081525090565b604051806040016040528060008152602001606081525090565b61057791905b8082111561057357600081600090555060010161055b565b5090565b90565b600082601f83011261058b57600080fd5b813561059e61059982610968565b61093b565b915080825260208301602083018583830111156105ba57600080fd5b6105c5838284610a46565b50505092915050565b600082601f8301126105df57600080fd5b81356105f26105ed82610994565b61093b565b9150808252602083016020830185838301111561060e57600080fd5b610619838284610a46565b50505092915050565b60008135905061063181610a99565b92915050565b60006020828403121561064957600080fd5b600082013567ffffffffffffffff81111561066357600080fd5b61066f848285016105ce565b91505092915050565b60008060006060848603121561068d57600080fd5b600084013567ffffffffffffffff8111156106a757600080fd5b6106b3868287016105ce565b93505060206106c486828701610622565b925050604084013567ffffffffffffffff8111156106e157600080fd5b6106ed868287016105ce565b9150509250925092565b6000806040838503121561070a57600080fd5b600083013567ffffffffffffffff81111561072457600080fd5b6107308582860161057a565b925050602061074185828601610622565b9150509250929050565b60006107578383610877565b905092915050565b600061076a826109d0565b61077481856109fe565b935083602082028501610786856109c0565b8060005b858110156107c257848403895281516107a3858261074b565b94506107ae836109f1565b925060208a0199505060018101905061078a565b50829750879550505050505092915050565b60006107df826109e6565b6107e98185610a31565b93506107f9818560208601610a55565b80840191505092915050565b6000610810826109db565b61081a8185610a0f565b935061082a818560208601610a55565b61083381610a88565b840191505092915050565b6000610849826109db565b6108538185610a20565b9350610863818560208601610a55565b61086c81610a88565b840191505092915050565b600060408301600083015161088f60008601826108b4565b50602083015184820360208601526108a78282610805565b9150508091505092915050565b6108bd81610a3c565b82525050565b6108cc81610a3c565b82525050565b60006108de82846107d4565b915081905092915050565b60006020820190508181036000830152610903818461075f565b905092915050565b600060408201905061092060008301856108c3565b8181036020830152610932818461083e565b90509392505050565b6000604051905081810181811067ffffffffffffffff8211171561095e57600080fd5b8060405250919050565b600067ffffffffffffffff82111561097f57600080fd5b601f19601f8301169050602081019050919050565b600067ffffffffffffffff8211156109ab57600080fd5b601f19601f8301169050602081019050919050565b6000819050602082019050919050565b600081519050919050565b600081519050919050565b600081519050919050565b6000602082019050919050565b600082825260208201905092915050565b600082825260208201905092915050565b600082825260208201905092915050565b600081905092915050565b6000819050919050565b82818337600083830152505050565b60005b83811015610a73578082015181840152602081019050610a58565b83811115610a82576000848401525b50505050565b6000601f19601f8301169050919050565b610aa281610a3c565b8114610aad57600080fd5b5056fea365627a7a7231582024cd538fdc8bfc41a74c494552b4de6726dd2b8769048898f1b10b89cae977f46c6578706572696d656e74616cf564736f6c63430005100040",
  "source": "// SPDX-License-Identifier: MIT\npragma solidity >=0.4.21 <8.10.0;\npragma experimental ABIEncoderV2;\n\ncontract MetaSnap {\n\n    struct Snapshot {\n        uint256 date;\n        string url;\n    }\n\n    mapping(string => Snapshot[]) public snapshots;\n\n    //function set(uint x) public {\n    //    addSnapshot('https://weburl', 20201444, 'https://snapshoturl3');\n    //}\n\n    function getSnapsForUrl(string memory _url) public view returns (Snapshot[] memory) {\n        return snapshots[_url];\n        Snapshot[] storage memorySnapshots = snapshots[_url];\n        Snapshot[] memory urlSnapshots = new Snapshot[](memorySnapshots.length);\n        for (uint i = 0; i < memorySnapshots.length; i++) {\n            Snapshot memory snap = memorySnapshots[i];\n            urlSnapshots[i] = snap;\n        }\n        return urlSnapshots;\n    }\n\n    constructor() public {\n        //addSnapshot('https://weburl', 20221288, 'https://snapshoturl1');\n        //addSnapshot('https://weburl', 20211366, 'https://snapshoturl2');\n    }\n\n    function addSnapshot(string memory _url, uint256 _date, string memory _snapshotUrl) public {\n        // TODO: let smart contract fetch _url content and set snapshotUrl\n        snapshots[_url].push(Snapshot(_date, _snapshotUrl));\n    }\n\n}\n",
  "sourcePath": "/Users/alex/crypto/snap/smartapp/contracts/MetaSnap.sol",
  "compiler": {
    "name": "solc",
    "version": "0.5.16+commit.9c3226ce.Emscripten.clang"
  },
  "schemaVersion": "3.4.5",
  "updatedAt": "2022-03-09T12:40:01.960Z",
  "devdoc": {
    "methods": {}
  },
  "userdoc": {
    "methods": {}
  }
}